{
  "contractName": "TodoList",
  "abi": [
    {
      "constant": true,
      "inputs": [],
      "name": "taskCount",
      "outputs": [
        {
          "name": "",
          "type": "uint256"
        }
      ],
      "payable": false,
      "stateMutability": "view",
      "type": "function",
      "signature": "0xb6cb58a5"
    }
  ],
  "bytecode": "0x608060405260008055348015601357600080fd5b50609e806100226000396000f3fe608060405260043610603f576000357c0100000000000000000000000000000000000000000000000000000000900463ffffffff168063b6cb58a5146044575b600080fd5b348015604f57600080fd5b506056606c565b6040518082815260200191505060405180910390f35b6000548156fea165627a7a72305820f0e84e112b3ca3c6507bdce998a1a2f3b2eee551a8f2f010b1d5fb0d3977f2140029",
  "source": "// SPDX-License-Identifier: MIT\r\npragma solidity >=0.5.0;\r\n\r\ncontract TodoList {\r\nuint public taskCount = 0;\r\n}",
  "sourcePath": "D:/Blockchain/ether-todo-list/contracts/TodoList.sol",
  "compiler": {
    "name": "solc",
    "version": "0.5.0+commit.1d4f565a.Emscripten.clang"
  },
  "schemaVersion": "3.0.1",
  "updatedAt": "2022-05-21T18:46:03.949Z",
  "devdoc": {
    "methods": {}
  },
  "userdoc": {
    "methods": {}
  }
}